{
  "contractName": "Artic",
  "abi": [
    {
      "inputs": [
        {
          "internalType": "address",
          "name": "_tokenAddress",
          "type": "address"
        }
      ],
      "payable": false,
      "stateMutability": "nonpayable",
      "type": "constructor"
    },
    {
      "anonymous": false,
      "inputs": [
        {
          "indexed": false,
          "internalType": "uint256",
          "name": "pid",
          "type": "uint256"
        },
        {
          "indexed": false,
          "internalType": "address",
          "name": "seller",
          "type": "address"
        },
        {
          "indexed": false,
          "internalType": "uint256",
          "name": "timestamp",
          "type": "uint256"
        }
      ],
      "name": "AddedActivity",
      "type": "event"
    },
    {
      "anonymous": false,
      "inputs": [
        {
          "indexed": false,
          "internalType": "uint256",
          "name": "pid",
          "type": "uint256"
        },
        {
          "indexed": false,
          "internalType": "address",
          "name": "seller",
          "type": "address"
        },
        {
          "indexed": false,
          "internalType": "uint256",
          "name": "timestamp",
          "type": "uint256"
        }
      ],
      "name": "AddedArticle",
      "type": "event"
    },
    {
      "anonymous": false,
      "inputs": [
        {
          "indexed": false,
          "internalType": "uint256",
          "name": "aid",
          "type": "uint256"
        },
        {
          "indexed": false,
          "internalType": "address",
          "name": "buyer",
          "type": "address"
        },
        {
          "indexed": false,
          "internalType": "uint256",
          "name": "oldBalance",
          "type": "uint256"
        },
        {
          "indexed": false,
          "internalType": "string",
          "name": "activityName",
          "type": "string"
        },
        {
          "indexed": false,
          "internalType": "uint256",
          "name": "point",
          "type": "uint256"
        },
        {
          "indexed": false,
          "internalType": "uint256",
          "name": "newBalance",
          "type": "uint256"
        },
        {
          "indexed": false,
          "internalType": "string",
          "name": "buyDateTime",
          "type": "string"
        }
      ],
      "name": "AddedBuyActivity",
      "type": "event"
    },
    {
      "anonymous": false,
      "inputs": [
        {
          "indexed": false,
          "internalType": "uint256",
          "name": "pid",
          "type": "uint256"
        },
        {
          "indexed": false,
          "internalType": "address",
          "name": "buyer",
          "type": "address"
        },
        {
          "indexed": false,
          "internalType": "uint256",
          "name": "timestamp",
          "type": "uint256"
        }
      ],
      "name": "BuyArticle",
      "type": "event"
    },
    {
      "constant": false,
      "inputs": [
        {
          "internalType": "uint256",
          "name": "_pid",
          "type": "uint256"
        },
        {
          "internalType": "string",
          "name": "_name",
          "type": "string"
        },
        {
          "internalType": "uint256",
          "name": "_point",
          "type": "uint256"
        },
        {
          "internalType": "uint256",
          "name": "_num",
          "type": "uint256"
        },
        {
          "internalType": "string",
          "name": "_imgPaths",
          "type": "string"
        },
        {
          "internalType": "uint256",
          "name": "timestamp",
          "type": "uint256"
        }
      ],
      "name": "addArticle",
      "outputs": [],
      "payable": false,
      "stateMutability": "nonpayable",
      "type": "function"
    },
    {
      "constant": false,
      "inputs": [
        {
          "internalType": "uint256",
          "name": "_aid",
          "type": "uint256"
        },
        {
          "internalType": "address",
          "name": "_account",
          "type": "address"
        },
        {
          "internalType": "uint256",
          "name": "_oldBalance",
          "type": "uint256"
        },
        {
          "internalType": "string",
          "name": "_activityName",
          "type": "string"
        },
        {
          "internalType": "uint256",
          "name": "_point",
          "type": "uint256"
        },
        {
          "internalType": "uint256",
          "name": "_newBalance",
          "type": "uint256"
        },
        {
          "internalType": "string",
          "name": "_buyDateTime",
          "type": "string"
        }
      ],
      "name": "addBuyActivity",
      "outputs": [],
      "payable": false,
      "stateMutability": "nonpayable",
      "type": "function"
    },
    {
      "constant": true,
      "inputs": [
        {
          "internalType": "uint256",
          "name": "_aid",
          "type": "uint256"
        }
      ],
      "name": "getBuyActivity",
      "outputs": [
        {
          "internalType": "address",
          "name": "account",
          "type": "address"
        },
        {
          "internalType": "uint256",
          "name": "oldBalance",
          "type": "uint256"
        },
        {
          "internalType": "string",
          "name": "activityName",
          "type": "string"
        },
        {
          "internalType": "uint256",
          "name": "point",
          "type": "uint256"
        },
        {
          "internalType": "uint256",
          "name": "newBalance",
          "type": "uint256"
        },
        {
          "internalType": "string",
          "name": "buyDateTime",
          "type": "string"
        }
      ],
      "payable": false,
      "stateMutability": "view",
      "type": "function"
    },
    {
      "constant": true,
      "inputs": [
        {
          "internalType": "uint256",
          "name": "_pid",
          "type": "uint256"
        }
      ],
      "name": "getArticle",
      "outputs": [
        {
          "internalType": "string",
          "name": "name",
          "type": "string"
        },
        {
          "internalType": "uint256",
          "name": "point",
          "type": "uint256"
        },
        {
          "internalType": "uint256",
          "name": "num",
          "type": "uint256"
        },
        {
          "internalType": "string",
          "name": "imgPaths",
          "type": "string"
        },
        {
          "internalType": "address",
          "name": "seller",
          "type": "address"
        }
      ],
      "payable": false,
      "stateMutability": "view",
      "type": "function"
    },
    {
      "constant": false,
      "inputs": [
        {
          "internalType": "uint256",
          "name": "_pid",
          "type": "uint256"
        },
        {
          "internalType": "uint256",
          "name": "_timestamp",
          "type": "uint256"
        }
      ],
      "name": "buyArticle",
      "outputs": [],
      "payable": false,
      "stateMutability": "nonpayable",
      "type": "function"
    }
  ],
  "bytecode": "0x608060405234801561001057600080fd5b5060405161136f38038061136f8339818101604052602081101561003357600080fd5b810190808051906020019092919050505080600260006101000a81548173ffffffffffffffffffffffffffffffffffffffff021916908373ffffffffffffffffffffffffffffffffffffffff160217905550506112da806100956000396000f3fe608060405234801561001057600080fd5b5060043610610074576000357c0100000000000000000000000000000000000000000000000000000000900480636aa5c352146100795780638543be78146100b1578063bd85d8671461024b578063c286c24a1461039f578063e9f1b8e7146104fa575b600080fd5b6100af6004803603604081101561008f57600080fd5b810190808035906020019092919080359060200190929190505050610674565b005b610249600480360360e08110156100c757600080fd5b8101908080359060200190929190803573ffffffffffffffffffffffffffffffffffffffff169060200190929190803590602001909291908035906020019064010000000081111561011857600080fd5b82018360208201111561012a57600080fd5b8035906020019184600183028401116401000000008311171561014c57600080fd5b91908080601f016020809104026020016040519081016040528093929190818152602001838380828437600081840152601f19601f8201169050808301925050505050505091929192908035906020019092919080359060200190929190803590602001906401000000008111156101c357600080fd5b8201836020820111156101d557600080fd5b803590602001918460018302840111640100000000831117156101f757600080fd5b91908080601f016020809104026020016040519081016040528093929190818152602001838380828437600081840152601f19601f82011690508083019250505050505050919291929050505061097a565b005b6102776004803603602081101561026157600080fd5b8101908080359060200190929190505050610bd8565b6040518080602001868152602001858152602001806020018473ffffffffffffffffffffffffffffffffffffffff1673ffffffffffffffffffffffffffffffffffffffff168152602001838103835288818151815260200191508051906020019080838360005b838110156102f95780820151818401526020810190506102de565b50505050905090810190601f1680156103265780820380516001836020036101000a031916815260200191505b50838103825285818151815260200191508051906020019080838360005b8381101561035f578082015181840152602081019050610344565b50505050905090810190601f16801561038c5780820380516001836020036101000a031916815260200191505b5097505050505050505060405180910390f35b6103cb600480360360208110156103b557600080fd5b8101908080359060200190929190505050610de9565b604051808773ffffffffffffffffffffffffffffffffffffffff1673ffffffffffffffffffffffffffffffffffffffff1681526020018681526020018060200185815260200184815260200180602001838103835287818151815260200191508051906020019080838360005b83811015610453578082015181840152602081019050610438565b50505050905090810190601f1680156104805780820380516001836020036101000a031916815260200191505b50838103825284818151815260200191508051906020019080838360005b838110156104b957808201518184015260208101905061049e565b50505050905090810190601f1680156104e65780820380516001836020036101000a031916815260200191505b509850505050505050505060405180910390f35b610672600480360360c081101561051057600080fd5b81019080803590602001909291908035906020019064010000000081111561053757600080fd5b82018360208201111561054957600080fd5b8035906020019184600183028401116401000000008311171561056b57600080fd5b91908080601f016020809104026020016040519081016040528093929190818152602001838380828437600081840152601f19601f8201169050808301925050505050505091929192908035906020019092919080359060200190929190803590602001906401000000008111156105e257600080fd5b8201836020820111156105f457600080fd5b8035906020019184600183028401116401000000008311171561061657600080fd5b91908080601f016020809104026020016040519081016040528093929190818152602001838380828437600081840152601f19601f8201169050808301925050505050505091929192908035906020019092919050505061100d565b005b600080600084815260200190815260200160002060030154116106ff576040517f08c379a00000000000000000000000000000000000000000000000000000000081526004018080602001828103825260138152602001807f50726f6475637420697320736f6c64206f75740000000000000000000000000081525060200191505060405180910390fd5b600080600084815260200190815260200160002090506000339050600260009054906101000a900473ffffffffffffffffffffffffffffffffffffffff1673ffffffffffffffffffffffffffffffffffffffff1663beabacc88360040160009054906101000a900473ffffffffffffffffffffffffffffffffffffffff168385600201546040518463ffffffff167c0100000000000000000000000000000000000000000000000000000000028152600401808473ffffffffffffffffffffffffffffffffffffffff1673ffffffffffffffffffffffffffffffffffffffff1681526020018373ffffffffffffffffffffffffffffffffffffffff1673ffffffffffffffffffffffffffffffffffffffff1681526020018281526020019350505050602060405180830381600087803b15801561083b57600080fd5b505af115801561084f573d6000803e3d6000fd5b505050506040513d602081101561086557600080fd5b81019080805190602001909291905050505060018260030160008282540392505081905550600160008581526020019081526020016000208190806001815401808255809150509060018203906000526020600020016000909192909190916101000a81548173ffffffffffffffffffffffffffffffffffffffff021916908373ffffffffffffffffffffffffffffffffffffffff160217905550507fca26e75c1216043b8db32e993a12e6c8ce84552a1acdab86a86280ed8f183fd8848285604051808481526020018373ffffffffffffffffffffffffffffffffffffffff1673ffffffffffffffffffffffffffffffffffffffff168152602001828152602001935050505060405180910390a150505050565b6040518060c001604052808773ffffffffffffffffffffffffffffffffffffffff168152602001868152602001858152602001848152602001838152602001828152506003600089815260200190815260200160002060008201518160000160006101000a81548173ffffffffffffffffffffffffffffffffffffffff021916908373ffffffffffffffffffffffffffffffffffffffff160217905550602082015181600101556040820151816002019080519060200190610a3d92919061116f565b50606082015181600301556080820151816004015560a0820151816005019080519060200190610a6e92919061116f565b509050507f6be821e376e484ab6807f7767cef686d5fb05413a17a43a58b2065260787f87e87338787878787604051808881526020018773ffffffffffffffffffffffffffffffffffffffff1673ffffffffffffffffffffffffffffffffffffffff1681526020018681526020018060200185815260200184815260200180602001838103835287818151815260200191508051906020019080838360005b83811015610b28578082015181840152602081019050610b0d565b50505050905090810190601f168015610b555780820380516001836020036101000a031916815260200191505b50838103825284818151815260200191508051906020019080838360005b83811015610b8e578082015181840152602081019050610b73565b50505050905090810190601f168015610bbb5780820380516001836020036101000a031916815260200191505b50995050505050505050505060405180910390a150505050505050565b606060008060606000610be96111ef565b6000808881526020019081526020016000206040518060a0016040529081600082018054600181600116156101000203166002900480601f016020809104026020016040519081016040528092919081815260200182805460018160011615610100020316600290048015610c9f5780601f10610c7457610100808354040283529160200191610c9f565b820191906000526020600020905b815481529060010190602001808311610c8257829003601f168201915b50505050508152602001600182018054600181600116156101000203166002900480601f016020809104026020016040519081016040528092919081815260200182805460018160011615610100020316600290048015610d415780601f10610d1657610100808354040283529160200191610d41565b820191906000526020600020905b815481529060010190602001808311610d2457829003601f168201915b5050505050815260200160028201548152602001600382015481526020016004820160009054906101000a900473ffffffffffffffffffffffffffffffffffffffff1673ffffffffffffffffffffffffffffffffffffffff1673ffffffffffffffffffffffffffffffffffffffff1681525050905080600001518160400151826060015183602001518460800151849450819150955095509550955095505091939590929450565b60008060606000806060610dfb611234565b600360008981526020019081526020016000206040518060c00160405290816000820160009054906101000a900473ffffffffffffffffffffffffffffffffffffffff1673ffffffffffffffffffffffffffffffffffffffff1673ffffffffffffffffffffffffffffffffffffffff16815260200160018201548152602001600282018054600181600116156101000203166002900480601f016020809104026020016040519081016040528092919081815260200182805460018160011615610100020316600290048015610f125780601f10610ee757610100808354040283529160200191610f12565b820191906000526020600020905b815481529060010190602001808311610ef557829003601f168201915b505050505081526020016003820154815260200160048201548152602001600582018054600181600116156101000203166002900480601f016020809104026020016040519081016040528092919081815260200182805460018160011615610100020316600290048015610fc85780601f10610f9d57610100808354040283529160200191610fc8565b820191906000526020600020905b815481529060010190602001808311610fab57829003601f168201915b5050505050815250509050806000015181602001518260400151836060015184608001518560a001518393508090509650965096509650965096505091939550919395565b6040518060a001604052808681526020018381526020018581526020018481526020013373ffffffffffffffffffffffffffffffffffffffff16815250600080888152602001908152602001600020600082015181600001908051906020019061107892919061116f565b50602082015181600101908051906020019061109592919061116f565b50604082015181600201556060820151816003015560808201518160040160006101000a81548173ffffffffffffffffffffffffffffffffffffffff021916908373ffffffffffffffffffffffffffffffffffffffff1602179055509050507fa9fc44aef4a57710cd2d281db26bdad8520a484b72c4b6b73fadaf74cf5b3cdf863383604051808481526020018373ffffffffffffffffffffffffffffffffffffffff1673ffffffffffffffffffffffffffffffffffffffff168152602001828152602001935050505060405180910390a1505050505050565b828054600181600116156101000203166002900490600052602060002090601f016020900481019282601f106111b057805160ff19168380011785556111de565b828001600101855582156111de579182015b828111156111dd5782518255916020019190600101906111c2565b5b5090506111eb9190611280565b5090565b6040518060a0016040528060608152602001606081526020016000815260200160008152602001600073ffffffffffffffffffffffffffffffffffffffff1681525090565b6040518060c00160405280600073ffffffffffffffffffffffffffffffffffffffff16815260200160008152602001606081526020016000815260200160008152602001606081525090565b6112a291905b8082111561129e576000816000905550600101611286565b5090565b9056fea265627a7a723158208ecde0cc73daa96a19c7e0b1623257a45d2cace446cad779e1d4f17ec390533e64736f6c63430005100032",
  "source": "pragma solidity >=0.4.25 <0.6.0;\r\n\r\nimport \"./Token.sol\";\r\n\r\ncontract Artic {\r\n    struct Article {\r\n        string name;\r\n        string imgPaths;\r\n        uint256 point;\r\n        uint256 num;\r\n        address seller;\r\n    }\r\n    event AddedArticle(uint256 pid, address seller, uint256 timestamp);\r\n    event AddedActivity(uint256 pid, address seller, uint256 timestamp);\r\n    event BuyArticle(uint256 pid, address buyer, uint256 timestamp);\r\n    mapping (uint256 => Article) articles;\r\n    mapping (uint256 => address[]) buying;\r\n    Token token;\r\n\r\n    constructor (address _tokenAddress) public {\r\n        token = Token(_tokenAddress);\r\n    }\r\n\r\n    function addArticle(\r\n        uint256 _pid,\r\n        string memory _name,\r\n        uint256 _point,\r\n        uint256 _num,\r\n        string memory _imgPaths,\r\n        uint256 timestamp\r\n    ) public {\r\n        articles[_pid] = Article({\r\n            name: _name,\r\n            imgPaths: _imgPaths,\r\n            point: _point,\r\n            num: _num,\r\n            seller: msg.sender\r\n        });\r\n        emit AddedArticle(_pid, msg.sender, timestamp);\r\n    }\r\n//---------------------------------------------------------------------------------------------------------------\r\n    struct BuyActivity {\r\n        address account;\r\n        uint256 oldBalance;\r\n        string activityName;\r\n        uint256 point;\r\n        uint256 newBalance;\r\n        string buyDateTime;\r\n    }\r\n    event AddedBuyActivity(uint256 aid, address buyer, uint256 oldBalance, string activityName, uint256 point, uint256 newBalance, string buyDateTime);\r\n    mapping (uint256 => BuyActivity) buyActivitys;\r\n\r\n    function addBuyActivity(\r\n        uint256 _aid,\r\n        address _account,\r\n        uint256 _oldBalance,\r\n        string memory _activityName,\r\n        uint256 _point,\r\n        uint256 _newBalance,\r\n        string memory _buyDateTime\r\n    ) public {\r\n        buyActivitys[_aid] = BuyActivity({\r\n            account: _account,\r\n            oldBalance: _oldBalance,\r\n            activityName: _activityName,\r\n            point: _point,\r\n            newBalance: _newBalance,\r\n            buyDateTime: _buyDateTime\r\n        });\r\n        emit AddedBuyActivity(_aid, msg.sender, _oldBalance, _activityName, _point, _newBalance, _buyDateTime);\r\n    }\r\n\r\n    function getBuyActivity(uint256 _aid) public view returns (address account, uint256 oldBalance, string memory activityName, uint256 point, uint256 newBalance, string memory buyDateTime) {\r\n        BuyActivity memory buyActivity = buyActivitys[_aid];\r\n        return (buyActivity.account, buyActivity.oldBalance, buyActivity.activityName, buyActivity.point, buyActivity.newBalance, buyActivity.buyDateTime);\r\n    }\r\n\r\n//----------------------------------------------------------------------------------------------------------------\r\n\r\n//----------------------------------------------------------------------------------------------------------------\r\n    // function addActivity(\r\n    //     uint256 _pid,\r\n    //     string memory _name,\r\n    //     uint256 _point,\r\n    //     uint256 _num,\r\n    //     string memory _imgPaths,\r\n    //     uint256 timestamp\r\n    // ) public {\r\n    //     articles[_pid] = Article({\r\n    //         name: _name,\r\n    //         imgPaths: _imgPaths,\r\n    //         point: _point,\r\n    //         num: _num,\r\n    //         seller: msg.sender\r\n    //     });\r\n    //     emit AddedActivity(_pid, msg.sender, timestamp);\r\n    // }\r\n//----------------------------------------------------------------------------------------------------------------\r\n    function getArticle(uint256 _pid) public view returns (string memory name, uint256 point, uint256 num, string memory imgPaths, address seller) {\r\n        Article memory article = articles[_pid];\r\n        return (article.name, article.point, article.num, article.imgPaths, article.seller);\r\n    }\r\n\r\n    function buyArticle(uint256 _pid, uint256 _timestamp) public {\r\n        require(articles[_pid].num > 0, \"Product is sold out\");\r\n\r\n        Article storage article = articles[_pid];\r\n        address _buyer = msg.sender;\r\n        token.transfer(article.seller, _buyer, article.point);\r\n\r\n        article.num -= 1;\r\n\r\n        buying[_pid].push(_buyer);\r\n        emit BuyArticle(_pid, _buyer, _timestamp);\r\n        // emit AddedActivity(_pid, _buyer, _timestamp);\r\n    }\r\n}\r\n",
  "sourcePath": "C:\\Users\\Ningyeye\\Reward\\contracts\\Artic.sol",
  "compiler": {
    "name": "solc",
    "version": "0.5.16+commit.9c3226ce.Emscripten.clang"
  },
  "schemaVersion": "3.0.23",
  "updatedAt": "2020-04-06T19:00:26.402Z",
  "networkType": "ethereum",
  "devdoc": {
    "methods": {}
  },
  "userdoc": {
    "methods": {}
  }
}