{
  "contractName": "Reward",
  "abi": [
    {
      "inputs": [
        {
          "internalType": "address",
          "name": "_tokenAddress",
          "type": "address"
        }
      ],
      "payable": false,
      "stateMutability": "nonpayable",
      "type": "constructor"
    },
    {
      "anonymous": false,
      "inputs": [
        {
          "indexed": false,
          "internalType": "uint256",
          "name": "hid",
          "type": "uint256"
        },
        {
          "indexed": false,
          "internalType": "address",
          "name": "buyer",
          "type": "address"
        },
        {
          "indexed": false,
          "internalType": "uint256",
          "name": "oldBalance",
          "type": "uint256"
        },
        {
          "indexed": false,
          "internalType": "string",
          "name": "productName",
          "type": "string"
        },
        {
          "indexed": false,
          "internalType": "uint256",
          "name": "price",
          "type": "uint256"
        },
        {
          "indexed": false,
          "internalType": "uint256",
          "name": "newBalance",
          "type": "uint256"
        },
        {
          "indexed": false,
          "internalType": "string",
          "name": "buyDateTime",
          "type": "string"
        }
      ],
      "name": "AddedBuyHistory",
      "type": "event"
    },
    {
      "anonymous": false,
      "inputs": [
        {
          "indexed": false,
          "internalType": "uint256",
          "name": "pid",
          "type": "uint256"
        },
        {
          "indexed": false,
          "internalType": "address",
          "name": "seller",
          "type": "address"
        },
        {
          "indexed": false,
          "internalType": "uint256",
          "name": "timestamp",
          "type": "uint256"
        }
      ],
      "name": "AddedHistory",
      "type": "event"
    },
    {
      "anonymous": false,
      "inputs": [
        {
          "indexed": false,
          "internalType": "uint256",
          "name": "pid",
          "type": "uint256"
        },
        {
          "indexed": false,
          "internalType": "address",
          "name": "seller",
          "type": "address"
        },
        {
          "indexed": false,
          "internalType": "uint256",
          "name": "timestamp",
          "type": "uint256"
        }
      ],
      "name": "AddedProduct",
      "type": "event"
    },
    {
      "anonymous": false,
      "inputs": [
        {
          "indexed": false,
          "internalType": "uint256",
          "name": "pid",
          "type": "uint256"
        },
        {
          "indexed": false,
          "internalType": "address",
          "name": "buyer",
          "type": "address"
        },
        {
          "indexed": false,
          "internalType": "uint256",
          "name": "timestamp",
          "type": "uint256"
        }
      ],
      "name": "BuyProduct",
      "type": "event"
    },
    {
      "constant": false,
      "inputs": [
        {
          "internalType": "uint256",
          "name": "_pid",
          "type": "uint256"
        },
        {
          "internalType": "string",
          "name": "_name",
          "type": "string"
        },
        {
          "internalType": "uint256",
          "name": "_price",
          "type": "uint256"
        },
        {
          "internalType": "uint256",
          "name": "_quantity",
          "type": "uint256"
        },
        {
          "internalType": "string",
          "name": "_imgPath",
          "type": "string"
        },
        {
          "internalType": "uint256",
          "name": "timestamp",
          "type": "uint256"
        }
      ],
      "name": "addProduct",
      "outputs": [],
      "payable": false,
      "stateMutability": "nonpayable",
      "type": "function"
    },
    {
      "constant": false,
      "inputs": [
        {
          "internalType": "uint256",
          "name": "_hid",
          "type": "uint256"
        },
        {
          "internalType": "address",
          "name": "_account",
          "type": "address"
        },
        {
          "internalType": "uint256",
          "name": "_oldBalance",
          "type": "uint256"
        },
        {
          "internalType": "string",
          "name": "_productName",
          "type": "string"
        },
        {
          "internalType": "uint256",
          "name": "_price",
          "type": "uint256"
        },
        {
          "internalType": "uint256",
          "name": "_newBalance",
          "type": "uint256"
        },
        {
          "internalType": "string",
          "name": "_buyDateTime",
          "type": "string"
        }
      ],
      "name": "addBuyHistory",
      "outputs": [],
      "payable": false,
      "stateMutability": "nonpayable",
      "type": "function"
    },
    {
      "constant": true,
      "inputs": [
        {
          "internalType": "uint256",
          "name": "_hid",
          "type": "uint256"
        }
      ],
      "name": "getBuyHistory",
      "outputs": [
        {
          "internalType": "address",
          "name": "account",
          "type": "address"
        },
        {
          "internalType": "uint256",
          "name": "oldBalance",
          "type": "uint256"
        },
        {
          "internalType": "string",
          "name": "productName",
          "type": "string"
        },
        {
          "internalType": "uint256",
          "name": "price",
          "type": "uint256"
        },
        {
          "internalType": "uint256",
          "name": "newBalance",
          "type": "uint256"
        },
        {
          "internalType": "string",
          "name": "buyDateTime",
          "type": "string"
        }
      ],
      "payable": false,
      "stateMutability": "view",
      "type": "function"
    },
    {
      "constant": true,
      "inputs": [
        {
          "internalType": "uint256",
          "name": "_pid",
          "type": "uint256"
        }
      ],
      "name": "getProduct",
      "outputs": [
        {
          "internalType": "string",
          "name": "name",
          "type": "string"
        },
        {
          "internalType": "uint256",
          "name": "price",
          "type": "uint256"
        },
        {
          "internalType": "uint256",
          "name": "quantity",
          "type": "uint256"
        },
        {
          "internalType": "string",
          "name": "imgPath",
          "type": "string"
        },
        {
          "internalType": "address",
          "name": "seller",
          "type": "address"
        }
      ],
      "payable": false,
      "stateMutability": "view",
      "type": "function"
    },
    {
      "constant": false,
      "inputs": [
        {
          "internalType": "uint256",
          "name": "_pid",
          "type": "uint256"
        },
        {
          "internalType": "uint256",
          "name": "_timestamp",
          "type": "uint256"
        }
      ],
      "name": "buyProduct",
      "outputs": [],
      "payable": false,
      "stateMutability": "nonpayable",
      "type": "function"
    }
  ],
  "bytecode": "0x608060405234801561001057600080fd5b5060405161136f38038061136f8339818101604052602081101561003357600080fd5b810190808051906020019092919050505080600260006101000a81548173ffffffffffffffffffffffffffffffffffffffff021916908373ffffffffffffffffffffffffffffffffffffffff160217905550506112da806100956000396000f3fe608060405234801561001057600080fd5b5060043610610074576000357c01000000000000000000000000000000000000000000000000000000009004806353b628661461007957806358a64693146100b1578063b9db15b41461020c578063bf1670d214610360578063dd31ee57146104fa575b600080fd5b6100af6004803603604081101561008f57600080fd5b810190808035906020019092919080359060200190929190505050610674565b005b6100dd600480360360208110156100c757600080fd5b810190808035906020019092919050505061097a565b604051808773ffffffffffffffffffffffffffffffffffffffff1673ffffffffffffffffffffffffffffffffffffffff1681526020018681526020018060200185815260200184815260200180602001838103835287818151815260200191508051906020019080838360005b8381101561016557808201518184015260208101905061014a565b50505050905090810190601f1680156101925780820380516001836020036101000a031916815260200191505b50838103825284818151815260200191508051906020019080838360005b838110156101cb5780820151818401526020810190506101b0565b50505050905090810190601f1680156101f85780820380516001836020036101000a031916815260200191505b509850505050505050505060405180910390f35b6102386004803603602081101561022257600080fd5b8101908080359060200190929190505050610b9e565b6040518080602001868152602001858152602001806020018473ffffffffffffffffffffffffffffffffffffffff1673ffffffffffffffffffffffffffffffffffffffff168152602001838103835288818151815260200191508051906020019080838360005b838110156102ba57808201518184015260208101905061029f565b50505050905090810190601f1680156102e75780820380516001836020036101000a031916815260200191505b50838103825285818151815260200191508051906020019080838360005b83811015610320578082015181840152602081019050610305565b50505050905090810190601f16801561034d5780820380516001836020036101000a031916815260200191505b5097505050505050505060405180910390f35b6104f8600480360360e081101561037657600080fd5b8101908080359060200190929190803573ffffffffffffffffffffffffffffffffffffffff16906020019092919080359060200190929190803590602001906401000000008111156103c757600080fd5b8201836020820111156103d957600080fd5b803590602001918460018302840111640100000000831117156103fb57600080fd5b91908080601f016020809104026020016040519081016040528093929190818152602001838380828437600081840152601f19601f82011690508083019250505050505050919291929080359060200190929190803590602001909291908035906020019064010000000081111561047257600080fd5b82018360208201111561048457600080fd5b803590602001918460018302840111640100000000831117156104a657600080fd5b91908080601f016020809104026020016040519081016040528093929190818152602001838380828437600081840152601f19601f820116905080830192505050505050509192919290505050610daf565b005b610672600480360360c081101561051057600080fd5b81019080803590602001909291908035906020019064010000000081111561053757600080fd5b82018360208201111561054957600080fd5b8035906020019184600183028401116401000000008311171561056b57600080fd5b91908080601f016020809104026020016040519081016040528093929190818152602001838380828437600081840152601f19601f8201169050808301925050505050505091929192908035906020019092919080359060200190929190803590602001906401000000008111156105e257600080fd5b8201836020820111156105f457600080fd5b8035906020019184600183028401116401000000008311171561061657600080fd5b91908080601f016020809104026020016040519081016040528093929190818152602001838380828437600081840152601f19601f8201169050808301925050505050505091929192908035906020019092919050505061100d565b005b600080600084815260200190815260200160002060030154116106ff576040517f08c379a00000000000000000000000000000000000000000000000000000000081526004018080602001828103825260138152602001807f50726f6475637420697320736f6c64206f75740000000000000000000000000081525060200191505060405180910390fd5b600080600084815260200190815260200160002090506000339050600260009054906101000a900473ffffffffffffffffffffffffffffffffffffffff1673ffffffffffffffffffffffffffffffffffffffff1663beabacc8828460040160009054906101000a900473ffffffffffffffffffffffffffffffffffffffff1685600201546040518463ffffffff167c0100000000000000000000000000000000000000000000000000000000028152600401808473ffffffffffffffffffffffffffffffffffffffff1673ffffffffffffffffffffffffffffffffffffffff1681526020018373ffffffffffffffffffffffffffffffffffffffff1673ffffffffffffffffffffffffffffffffffffffff1681526020018281526020019350505050602060405180830381600087803b15801561083b57600080fd5b505af115801561084f573d6000803e3d6000fd5b505050506040513d602081101561086557600080fd5b81019080805190602001909291905050505060018260030160008282540392505081905550600160008581526020019081526020016000208190806001815401808255809150509060018203906000526020600020016000909192909190916101000a81548173ffffffffffffffffffffffffffffffffffffffff021916908373ffffffffffffffffffffffffffffffffffffffff160217905550507f6e963996302b87595be0bd0f2d400e2f43c1cfce4378ba7e9b34305fe2f2746b848285604051808481526020018373ffffffffffffffffffffffffffffffffffffffff1673ffffffffffffffffffffffffffffffffffffffff168152602001828152602001935050505060405180910390a150505050565b6000806060600080606061098c61116f565b600360008981526020019081526020016000206040518060c00160405290816000820160009054906101000a900473ffffffffffffffffffffffffffffffffffffffff1673ffffffffffffffffffffffffffffffffffffffff1673ffffffffffffffffffffffffffffffffffffffff16815260200160018201548152602001600282018054600181600116156101000203166002900480601f016020809104026020016040519081016040528092919081815260200182805460018160011615610100020316600290048015610aa35780601f10610a7857610100808354040283529160200191610aa3565b820191906000526020600020905b815481529060010190602001808311610a8657829003601f168201915b505050505081526020016003820154815260200160048201548152602001600582018054600181600116156101000203166002900480601f016020809104026020016040519081016040528092919081815260200182805460018160011615610100020316600290048015610b595780601f10610b2e57610100808354040283529160200191610b59565b820191906000526020600020905b815481529060010190602001808311610b3c57829003601f168201915b5050505050815250509050806000015181602001518260400151836060015184608001518560a001518393508090509650965096509650965096505091939550919395565b606060008060606000610baf6111bb565b6000808881526020019081526020016000206040518060a0016040529081600082018054600181600116156101000203166002900480601f016020809104026020016040519081016040528092919081815260200182805460018160011615610100020316600290048015610c655780601f10610c3a57610100808354040283529160200191610c65565b820191906000526020600020905b815481529060010190602001808311610c4857829003601f168201915b50505050508152602001600182018054600181600116156101000203166002900480601f016020809104026020016040519081016040528092919081815260200182805460018160011615610100020316600290048015610d075780601f10610cdc57610100808354040283529160200191610d07565b820191906000526020600020905b815481529060010190602001808311610cea57829003601f168201915b5050505050815260200160028201548152602001600382015481526020016004820160009054906101000a900473ffffffffffffffffffffffffffffffffffffffff1673ffffffffffffffffffffffffffffffffffffffff1673ffffffffffffffffffffffffffffffffffffffff1681525050905080600001518160400151826060015183602001518460800151849450819150955095509550955095505091939590929450565b6040518060c001604052808773ffffffffffffffffffffffffffffffffffffffff168152602001868152602001858152602001848152602001838152602001828152506003600089815260200190815260200160002060008201518160000160006101000a81548173ffffffffffffffffffffffffffffffffffffffff021916908373ffffffffffffffffffffffffffffffffffffffff160217905550602082015181600101556040820151816002019080519060200190610e72929190611200565b50606082015181600301556080820151816004015560a0820151816005019080519060200190610ea3929190611200565b509050507fa98ad8ca16dcbc2ad044756b013a7d929c9088981163999d19721ff824e7b92287338787878787604051808881526020018773ffffffffffffffffffffffffffffffffffffffff1673ffffffffffffffffffffffffffffffffffffffff1681526020018681526020018060200185815260200184815260200180602001838103835287818151815260200191508051906020019080838360005b83811015610f5d578082015181840152602081019050610f42565b50505050905090810190601f168015610f8a5780820380516001836020036101000a031916815260200191505b50838103825284818151815260200191508051906020019080838360005b83811015610fc3578082015181840152602081019050610fa8565b50505050905090810190601f168015610ff05780820380516001836020036101000a031916815260200191505b50995050505050505050505060405180910390a150505050505050565b6040518060a001604052808681526020018381526020018581526020018481526020013373ffffffffffffffffffffffffffffffffffffffff168152506000808881526020019081526020016000206000820151816000019080519060200190611078929190611200565b506020820151816001019080519060200190611095929190611200565b50604082015181600201556060820151816003015560808201518160040160006101000a81548173ffffffffffffffffffffffffffffffffffffffff021916908373ffffffffffffffffffffffffffffffffffffffff1602179055509050507f283a98e56d9d477bc9675301834a627bc96a173f644ce87ab9bbeee35e192965863383604051808481526020018373ffffffffffffffffffffffffffffffffffffffff1673ffffffffffffffffffffffffffffffffffffffff168152602001828152602001935050505060405180910390a1505050505050565b6040518060c00160405280600073ffffffffffffffffffffffffffffffffffffffff16815260200160008152602001606081526020016000815260200160008152602001606081525090565b6040518060a0016040528060608152602001606081526020016000815260200160008152602001600073ffffffffffffffffffffffffffffffffffffffff1681525090565b828054600181600116156101000203166002900490600052602060002090601f016020900481019282601f1061124157805160ff191683800117855561126f565b8280016001018555821561126f579182015b8281111561126e578251825591602001919060010190611253565b5b50905061127c9190611280565b5090565b6112a291905b8082111561129e576000816000905550600101611286565b5090565b9056fea265627a7a7231582008aa42bdfdbcac3c4d3840c2d31d404f5429bcfa1385ec8fba9194dc1400ecb564736f6c63430005100032",
  "source": "pragma solidity >=0.4.25 <0.6.0;\n\nimport \"./Token.sol\";\n\ncontract Reward {\n    struct Product {\n        string name;\n        string imgPath;\n        uint256 price;\n        uint256 quantity;\n        address seller;\n    }\n    event AddedProduct(uint256 pid, address seller, uint256 timestamp);\n    event AddedHistory(uint256 pid, address seller, uint256 timestamp);\n    event BuyProduct(uint256 pid, address buyer, uint256 timestamp);\n    mapping (uint256 => Product) products;\n    mapping (uint256 => address[]) buying;\n    Token token;\n\n    constructor (address _tokenAddress) public {\n        token = Token(_tokenAddress);\n    }\n\n    function addProduct(\n        uint256 _pid,\n        string memory _name,\n        uint256 _price,\n        uint256 _quantity,\n        string memory _imgPath,\n        uint256 timestamp\n    ) public {\n        products[_pid] = Product({\n            name: _name,\n            imgPath: _imgPath,\n            price: _price,\n            quantity: _quantity,\n            seller: msg.sender\n        });\n        emit AddedProduct(_pid, msg.sender, timestamp);\n    }\n//------------------------------------------------------------------------------------------------------------------------------------------------\n    // function addHistory(\n    //     uint256 _pid,\n    //     string memory _name,\n    //     uint256 _price,\n    //     uint256 _quantity,\n    //     string memory _imgPath,\n    //     uint256 timestamp\n    // ) public {\n    //     products[_pid] = Product({\n    //         name: _name,\n    //         imgPath: _imgPath,\n    //         price: _price,\n    //         quantity: _quantity,\n    //         seller: msg.sender\n    //     });\n    //     emit AddedHistory(_pid, msg.sender, timestamp);\n    // }\n//---------------------------------------------------------------------------------------------------------------------------------------------------\n\n//--------------------------------------------------------------------------------------------------------------------------\nstruct BuyHistory {\n        address account;\n        uint256 oldBalance;\n        string productName;\n        uint256 price;\n        uint256 newBalance;\n        string buyDateTime;\n    }\n    event AddedBuyHistory(uint256 hid, address buyer, uint256 oldBalance, string productName, uint256 price, uint256 newBalance, string buyDateTime);\n    mapping (uint256 => BuyHistory) buyHistorys;\n\n    function addBuyHistory(\n        uint256 _hid,\n        address _account,\n        uint256 _oldBalance,\n        string memory _productName,\n        uint256 _price,\n        uint256 _newBalance,\n        string memory _buyDateTime\n    ) public {\n        buyHistorys[_hid] = BuyHistory({\n            account: _account,\n            oldBalance: _oldBalance,\n            productName: _productName,\n            price: _price,\n            newBalance: _newBalance,\n            buyDateTime: _buyDateTime\n        });\n        emit AddedBuyHistory(_hid, msg.sender, _oldBalance, _productName, _price, _newBalance, _buyDateTime);\n    }\n\n    function getBuyHistory(uint256 _hid) public view returns (address account, uint256 oldBalance, string memory productName, uint256 price, uint256 newBalance, string memory buyDateTime) {\n        BuyHistory memory buyHistory = buyHistorys[_hid];\n        return (buyHistory.account, buyHistory.oldBalance, buyHistory.productName, buyHistory.price, buyHistory.newBalance, buyHistory.buyDateTime);\n    }\n\n//---------------------------------------------------------------------------------------------------------------------------\n    function getProduct(uint256 _pid) public view returns (string memory name, uint256 price, uint256 quantity, string memory imgPath, address seller) {\n        Product memory product = products[_pid];\n        return (product.name, product.price, product.quantity, product.imgPath, product.seller);\n    }\n\n    function buyProduct(uint256 _pid, uint256 _timestamp) public {\n        require(products[_pid].quantity > 0, \"Product is sold out\");\n\n        Product storage product = products[_pid];\n        address _buyer = msg.sender;\n        token.transfer(_buyer, product.seller, product.price);\n\n        product.quantity -= 1;\n\n        buying[_pid].push(_buyer);\n        emit BuyProduct(_pid, _buyer, _timestamp);\n        // emit AddedHistory(_pid, _buyer, _timestamp);\n    }\n}\n",
  "sourcePath": "C:\\Users\\Ningyeye\\Reward\\contracts\\Reward.sol",
  "compiler": {
    "name": "solc",
    "version": "0.5.16+commit.9c3226ce.Emscripten.clang"
  },
  "schemaVersion": "3.0.23",
  "updatedAt": "2020-04-06T19:00:26.384Z",
  "networkType": "ethereum",
  "devdoc": {
    "methods": {}
  },
  "userdoc": {
    "methods": {}
  }
}